S00E000030365F4144432E7372656389
S113000070240020190300001503000015030000EC
S113001000000000000000000000000000000000DC
S113002000000000000000000000000015030000B4
S1130030000000000000000015030000150300008C
S1130040150300001503000015030000150300004C
S1130050150300001503000015030000150300003C
S1130060150300001503000015030000150300002C
S1130070150300001503000015030000150300001C
S1130080150300001503000015030000150300000C
S113009015030000150300001503000015030000FC
S11300A015030000150300001503000015030000EC
S11300B00000000010B5064C2378002B07D1054B37
S11300C0002B02D0044800E000BF0123237010BDC0
S11300D02C04002000000000EC050000084B10B5C3
S11300E0002B03D00749084800E000BF0748036815
S11300F0002B00D110BD064B002BFBD09847F9E72D
S11301000000000030040020EC050000EC050000B5
S11301100000000010B5364B4B201A5C01210A4345
S11301201A5416381C5C0F222240102422431A54FD
S11301300F301A5C0A431A5412381A5C0F24A24373
S11301400A431A542B4A1378194311702A4B1B681B
S11301509906490F294A1468E40E5B01FF221A40EC
S11301601443244A537EDB09FCD10A022243214B67
S11301701A855978802252420A435A705A780F21BC
S11301808A43042002435A701A691D481040C02251
S1130190520102431A611A691F2082430C38024338
S11301A01A619A88174810408022520002439A80AC
S11301B09A88022082439A809A882E3082431020A3
S11301C002439A809A88012082439A809A88042064
S11301D002439A809A788A4308210A439A709A784B
S11301E070218A439A701A7802210A431A7010BD4A
S11301F000440041004000422460800020608000F0
S1130200FFE0FFFFFFF8FFFF034A137EDB07FCD587
S1130210014B588B80B270470040004210B5044B2C
S1130220984780239B02034A1360034A136010BD5E
S113023085020000004400411444004170B50B4E97
S11302400B4D0C4C09E0FA231B01984203DD80227C
S11302509202094B1A600948A047B047A842F2DC51
S113026080229202064B1A60F5E7C046090200009C
S11302709F0F0000090300001844004193760A0010
S11302801444004119490B6A8022520213430B6241
S1130290174B196A174801401962196A0220014371
S11302A01962154B00219960596814480840C0210F
S11302B0C90001435960596811480140596059689F
S11302C00F208143596059680A435A605A883F2174
S11302D08A431E210A435A805A880A490A405A808E
S11302E059888022D2010A435A8070470004004092
S11302F000080040FFFCFFFF000C0040FFE0FFFF90
S1130300FFFFEFFFFFF0FFFFBFF35F8F013800280F
S1130310FAD17047FEE70000F8B52A4A2A4B9A4200
S113032011D01A00294B9A420DD2294A03339B1A41
S11303309B0801339B000022234822498C58845097
S113034004329A42FAD1234A234B9A420AD2D34323
S113035021495B1803218B4304339B18002102C2FB
S11303609342FCD11D4AFF211D4B8B439360FD3901
S113037090235B001B4AD1501B4AD3780325AB431F
S113038002242343D370D3780C27BB43082633437A
S1130390D370164B987B30229043202210439873DD
S11303A0997BB943314399739A7BAA4322439A7345
S11303B00F4A536880210B4353600E4B98470E4BF2
S11303C09847FEE7EC050000000000202C04002004
S11303D0040000202C0400206C04002000ED00E048
S11303E0000000000070004100500041004800413E
S11303F00040004125040000FD03000010B5054B3A
S11304009847054B98470322044B1A73044CA047A2
S1130410FDE7C0461D020000150100000040004237
S11304203D02000070B50D4E0D4D0024AD1BAD1006
S113043005D0A300F35801349847A542F9D100F040
S1130440C3F8084E084D0024AD1BAD1005D0A30021
S1130450F35801349847A542F9D170BDD405000082
S1130460D4050000D4050000DC050000034B10B5E2
S1130470002B02D0024800F005F810BD0000000077
S11304809504000010B5010000230022002000F0B4
S11304901FF810BD70B5094B094CE41AA41009D01B
S11304A0084AA518AD00ED182B68013C9847043D97
S11304B0002CF9D100F092F870BDC046E8050000A8
S11304C0EC050000FFFFFF3F7047C0467047C04681
S11304D0F0B54E464546DE465746E0B5364D83B048
S11304E00600286898460F009146FFF7EDFF334B4E
S11304F01C68A4235B00E058002852D043681F2BDB
S113050013DC5A1C0192002E28D1019A02339B005D
S113051042601F502868FFF7D9FF002003B03CBC9D
S113052090469946A246AB46F0BD254B002B3DD0E4
S1130530C820400000E000BF002837D0A4220023D8
S11305405200A15843600160A050403283500432ED
S11305508350013301930023002ED6D09A00924693
S113056082444A46882154466250C422520091462D
S113057081444A468739994012688B460A43944617
S11305804A4661461160842241465200A150022E1F
S1130590BBD102005C468D32FF3211680C431460FB
S11305A0B3E720004D30FF30E050A7E72868FFF79D
S11305B08DFF01204042B1E728040020C40500005B
S11305C00000000000000020F8B5C046F8BC08BCDC
S11305D09E4670476D040000DD000000F8B5C0467B
S10F05E0F8BC08BC9E467047B500000043
S11305EC00000000EC02002054030020BC03002097
S11305FC00000000000000000000000000000000EB
S113060C00000000000000000000000000000000DA
S113061C00000000000000000000000000000000CA
S113062C00000000000000000000000000000000BA
S113063C00000000000000000000000000000000AA
S113064C000000000000000000000000000000009A
S113065C000000000000000000000000000000008A
S113066C000000000000000000000000000000007A
S113067C000000000000000000000000000000006A
S113068C0000000000000000010000000000000059
S113069C0E33CDAB34126DE6ECDE05000B0000001E
S11306AC000000000000000000000000000000003A
S11306BC000000000000000000000000000000002A
S11306CC000000000000000000000000000000001A
S11306DC000000000000000000000000000000000A
S10F0A0C0000000000000000480400206E
S9030000FC
